:100000000C9446000C9465000C9465000C946500FB
:100010000C9465000C9465000C9465000C946500CC
:100020000C9465000C9465000C9465000C946500BC
:100030000C9465000C94DE000C9465000C94650033
:100040000C9465000C9465000C9465000C9465009C
:100050000C9465000C9465000C9465000C9465008C
:100060000C9465000C9465000C9465000C9465007C
:100070000C9465000C9465000C9465000C9465006C
:100080000C9465000C9465000C94650011241FBE4F
:10009000CFEFD0E4DEBFCDBF11E0A0E0B1E0E0E8FB
:1000A000F6E000E00BBF02C007900D92A231B1074D
:1000B000D9F721E0A2E1B1E001C01D92AC31B20755
:1000C000E1F70E9407030C943E030C940000CF93C9
:1000D000DF9300D01F92CDB7DEB789837B836A831D
:1000E00089818A3031F48A819B81BC018DE00E9434
:1000F000670080EC90E0FC018081882F90E08072A6
:100100009927892BB1F386EC90E02981FC012083AB
:1001100080E090E00F900F900F90DF91CF910895C5
:10012000CF93DF93CDB7DEB781E890E02BE0FC0101
:10013000208388E890E02DE730E0FC0131832083C4
:100140008FE690E022E0FC01208384E890E0FC014F
:100150001182108280910E0190910F01A0911001E7
:10016000B09111018093130190931401A093150194
:10017000B09316018FE590E02FE530E0F901208182
:100180002068FC0120830000DF91CF910895CF9378
:10019000DF93CDB7DEB781E890E0FC01108200006C
:1001A000DF91CF910895CF93DF93CDB7DEB781E094
:1001B000809312010000DF91CF9108951F920F925A
:1001C00000905F000F92112400905B000F922F931C
:1001D0003F934F935F936F937F938F939F93AF93CF
:1001E000BF93EF93FF93CF93DF93CDB7DEB78091AB
:1001F000130190911401A0911501B091160101977E
:10020000A109B1098093130190931401A0931501E2
:10021000B09316018091130190911401A0911501E2
:10022000B0911601892B8A2B8B2B91F40E94D3005D
:1002300080910E0190910F01A0911001B0911101D8
:100240008093130190931401A0931501B0931601AC
:100250000000DF91CF91FF91EF91BF91AF919F91FE
:100260008F917F916F915F914F913F912F910F905F
:1002700000925B000F9000925F000F901F90189506
:10028000CF93DF9300D000D0CDB7DEB769837A83F8
:100290008B839C8389819A81AB81BC8180930E0181
:1002A00090930F01A0931001B093110180910E0162
:1002B00090910F01A0911001B09111018093130151
:1002C00090931401A0931501B093160100000F90B4
:1002D0000F900F900F90DF91CF910895CF93DF9300
:1002E000CDB7DEB780911A0190911B018230910544
:1002F00009F465C08330910528F4009779F00197DF
:1003000099F107C18430910509F4AFC0843091059B
:1003100008F480C0059709F4D2C0FBC08091170192
:10032000833039F483E090E090931B0180931A01AD
:10033000FEC080911701823039F482E090E0909302
:100340001B0180931A01F3C080911701813039F4A9
:1003500081E090E090931B0180931A01E8C0109215
:100360001B0110921A01E3C080911701813039F40A
:1003700084E090E090931B0180931A01CFC080919C
:100380001701823039F482E090E090931B01809352
:100390001A01C4C080911701833039F483E090E0E2
:1003A00090931B0180931A01B9C080911701882393
:1003B00009F0B4C010921B0110921A01AFC08091D5
:1003C0001701823039F485E090E090931B0180930F
:1003D0001A01A6C080911701813039F481E090E0C4
:1003E00090931B0180931A019BC080911701833069
:1003F00039F483E090E090931B0180931A0190C040
:1004000080911701882309F08BC010921B01109274
:100410001A0186C080911701882329F410921B01CC
:1004200010921A017FC080911701813039F481E068
:1004300090E090931B0180931A0174C08091170182
:10044000823039F482E090E090931B0180931A018E
:1004500069C080911701833009F064C083E090E0A7
:1004600090931B0180931A015DC08091170188232E
:1004700029F410921B0110921A0156C080911701A5
:10048000813039F484E090E090931B0180931A014D
:100490004BC080911701823039F482E090E0909354
:1004A0001B0180931A0140C0809117018330E1F550
:1004B00083E090E090931B0180931A0135C08091F6
:1004C0001701882329F410921B0110921A012EC0E3
:1004D00080911701823039F485E090E090931B0100
:1004E00080931A0123C080911701813039F481E093
:1004F00090E090931B0180931A0118C0809117011E
:100500008330A1F483E090E090931B0180931A0163
:100510000DC010921B0110921A0109C0000007C003
:10052000000005C0000003C0000001C00000809171
:100530001A0190911B0182309105E9F083309105F9
:1005400030F4009709F450C0019751F056C0843040
:100550009105F1F084309105C0F0059779F14DC017
:1005600080911901893008F041C0809119018F5F95
:10057000809319013BC0809119018823C9F18091B2
:10058000190181508093190133C01092190135C0AF
:10059000809118018A3030F4809118018F5F809328
:1005A000180128C01092180180911901893010F5A6
:1005B000809119018F5F809319011CC080911801EF
:1005C0008A3030F4809118018F5F8093180114C035
:1005D0001092180180911901882371F080911901FE
:1005E00081508093190108C0000007C0000005C0B9
:1005F000000003C0000001C0000085E290E02091EF
:100600001901FC0120830000DF91CF910895CF9361
:10061000DF93CDB7DEB781E290E0FC01108282E289
:1006200090E02FEFFC01208384E290E02FEFFC01AB
:10063000208385E290E0FC01108264E670E080E0B7
:1006400090E00E9440010E94900010921B011092C5
:100650001A0187E08093190180E290E0FC0180811B
:1006600080958370809317010E946E010000809135
:1006700012018823E1F310921201EECFF894FFCF1C
:100680000000000200000000670000000000010000
:02069000000068
:00000001FF
