:100000000C9456000C9475000C9475000C947500BB
:100010000C9475000C9475000C9475000C9475008C
:100020000C9475000C9475000C9475000C9475007C
:100030000C9475000C94EE000C9475000C947500F3
:100040000C9475000C9475000C9475000C9475005C
:100050000C9475000C9475000C9475000C9475004C
:100060000C9475000C9475000C9475000C9475003C
:100070000C9475000C9475000C9475000C9475002C
:100080000C9475000C9475000C94750098019F01F8
:10009000A601B801CA01DC01EE01000248024802D3
:1000A0002E0234023A0240024802480211241FBEC6
:1000B000CFEFD0E4DEBFCDBF11E0A0E0B1E0EAE2D7
:1000C000F5E000E00BBF02C007900D92A231B1072E
:1000D000D9F721E0A2E1B1E001C01D92AA31B20737
:1000E000E1F70E944D020C9493020C940000CF9310
:1000F000DF9300D01F92CDB7DEB789837B836A83FD
:1001000089818A3031F48A819B81BC018DE00E9413
:10011000770080EC90E0FC018081882F90E0807275
:100120009927892BB1F386EC90E02981FC0120838B
:1001300080E090E00F900F900F90DF91CF910895A5
:10014000CF93DF93CDB7DEB781E890E02BE0FC01E1
:10015000208388E890E02DE730E0FC0131832083A4
:100160008FE690E022E0FC01208384E890E0FC012F
:100170001182108280910E0190910F01A0911001C7
:10018000B09111018093130190931401A093150174
:10019000B09316018FE590E02FE530E0F901208162
:1001A0002068FC0120830000DF91CF910895CF9358
:1001B000DF93CDB7DEB781E890E0FC01108200004C
:1001C000DF91CF910895CF93DF93CDB7DEB781E074
:1001D000809312010000DF91CF9108951F920F923A
:1001E00000905F000F92112400905B000F922F93FC
:1001F0003F934F935F936F937F938F939F93AF93AF
:10020000BF93EF93FF93CF93DF93CDB7DEB780918A
:10021000130190911401A0911501B091160101975D
:10022000A109B1098093130190931401A0931501C2
:10023000B09316018091130190911401A0911501C2
:10024000B0911601892B8A2B8B2B91F40E94E3002D
:1002500080910E0190910F01A0911001B0911101B8
:100260008093130190931401A0931501B09316018C
:100270000000DF91CF91FF91EF91BF91AF919F91DE
:100280008F917F916F915F914F913F912F910F903F
:1002900000925B000F9000925F000F901F901895E6
:1002A000CF93DF9300D000D0CDB7DEB769837A83D8
:1002B0008B839C8389819A81AB81BC8180930E0161
:1002C00090930F01A0931001B093110180910E0142
:1002D00090910F01A0911001B09111018093130131
:1002E00090931401A0931501B093160100000F9094
:1002F0000F900F900F90DF91CF910895CF93DF93E0
:10030000CDB7DEB78091180190911901CC01A0E022
:10031000B0E040E050E027E030E0841B950B281768
:10032000390708F47FC08A5B9F4FFC010C948A0256
:1003300081E090E090931901809318017AC082E0E7
:1003400090E0909319018093180173C08091170178
:10035000882339F086E090E090931901809318018A
:1003600068C083E090E0909319018093180161C008
:1003700080911701882339F086E090E0909319016D
:100380008093180156C084E090E090931901809307
:1003900018014FC080911701882339F086E090E062
:1003A000909319018093180144C085E090E09093E8
:1003B0001901809318013DC080911701882339F0FD
:1003C00086E090E0909319018093180132C082E09A
:1003D00090E090931901809318012BC08091170130
:1003E000882339F086E090E09093190180931801FA
:1003F00020C087E090E0909319018093180119C004
:1004000080911701882339F082E090E090931901E0
:10041000809318010EC087E090E0909319018093BB
:10042000180107C081E090E09093190180931801B2
:1004300000008091180190911901CC01A0E0B0E07A
:1004400040E050E027E030E0841B950B2817390787
:10045000E8F0825B9F4FFC010C948A0285E290E0F9
:1004600021E0FC01208315C085E290E022E0FC0140
:1004700020830FC085E290E024E0FC01208309C0C6
:1004800085E290E022E0FC01208303C0000001C06F
:1004900000000000DF91CF910895CF93DF93CDB797
:1004A000DEB781E290E0FC01108282E290E02FEF63
:1004B000FC01208384E290E02FEFFC01208385E2A1
:1004C00090E0FC0110826CE271E080E090E00E941C
:1004D00050010E94A00081E090E090931901809368
:1004E000180180E290E0FC018081882F90E081700B
:1004F000992721E0892B09F020E0822F80931701B2
:100500000E947E010000809112018823E1F3109285
:100510001201E7CFEE0FFF1F0024001C0BBE079057
:0A052000F691E02D0994F894FFCF46
:10052A000000000200000000770000000000010047
:02053A000000BF
:00000001FF
